:100000000C9434000C945A000C945A000C945A002E
:100010000C945A000C945A000C945A000C945A00F8
:100020000C945A000C945A000C945A000C945B00E7
:100030000C945A000C945A000C945A000C945A00D8
:100040000C945A000C945A000C945A000C945A00C8
:100050000C945A000C945A000C945A000C945A00B8
:080060000C945A000C945A00A4
:10006800F8940BE40DBF0AE00EBFECECF5E0A0E05D
:10007800B1E022E031E001900D92A217B307D9F761
:10008800E2E0F1E080E02CE431E08193E217F3074D
:10009800E0F311240027112722273327AA27BB279B
:1000A800CC27DD27EE27FF270C94BB010000CF9358
:1000B800C0915F00CF93DF93EF93D0910001D030D0
:1000C80011F00C941101D1E0D0930001CDB7DEB747
:1000D8002496E881E09326012196E881E0932501A2
:1000E8002196C0932201D0932301EF91DF91CF9104
:1000F800C0932401CF910092020110920301209233
:100108000401309205014092060150920701609265
:1001180008017092090180920A0190920B01A09245
:100128000C01B0920D01C0920E01D0920F01E09225
:100138001001F09211010093120110931301209302
:1001480014013093150140931601509317016093E1
:1001580018017093190180931A0190931B01A093C1
:100168001C01B0931D01C0931E01D0931F01E093A1
:100178002001F0932101C0914701CDBFD0914801E2
:10018800DEBFE0914A01F0914B01EF93FF93E091BC
:100198004901E0935F00009027011090280120900A
:1001A800290130902A0140902B0150902C01609039
:1001B8002D0170902E0180902F0190903001A09019
:1001C8003101B0903201C0903301D0903401E090F9
:1001D8003501F090360100913701109138012091D6
:1001E800390130913A0140913B0150913C016091B5
:1001F8003D0170913E0180913F0190914001A09195
:100208004101B0914201C0914301D0914401E09174
:100218004501F09146010C94B901DD27D093000106
:10022800CDB7DEB72496E881E0934B012196E881AB
:10023800E0934A012196C0934701D0934801EF917A
:10024800DF91CF91C0934901CF910092270110927D
:1002580028012092290130922A0140922B015092C4
:100268002C0160922D0170922E0180922F019092A4
:100278003001A0923101B0923201C0923301D09284
:100288003401E0923501F092360100933701109362
:1002980038012093390130933A0140933B01509340
:1002A8003C0160933D0170933E0180933F01909320
:1002B8004001A0934101B0934201C0934301D09300
:1002C8004401E0934501F0934601C0912201CDBF5E
:1002D800D0912301DEBFE0912501F0912601EF9333
:1002E800FF93E0912401E0935F00009002011090D9
:1002F80003012090040130900501409006015090C0
:100308000701609008017090090180900A0190909F
:100318000B01A0900C01B0900D01C0900E01D0907F
:100328000F01E0901001F09011010091120110915D
:10033800130120911401309115014091160150913B
:100348001701609118017091190180911A0190911B
:100358001B01A0911C01B0911D01C0911E01D091FB
:100368001F01E0912001F091210100001895CF9321
:10037800DF9300D0CDB7DEB782E091E00E940E0295
:100388008DEE91E042E051E0BC0180E090E00E94F7
:1003980054020E9493020E94B9028AE290E0FC0192
:1003A80020818AE290E02068FC0120838BE290E0C3
:1003B800FC0130818BE290E020E82327FC012083B8
:1003C8001A82198289819A8101969A838983000009
:1003D800F9CFCF93DF9300D0CDB7DEB784E290E0BA
:1003E800FC01208184E290E02062FC01208385E208
:1003F80090E0FC01308185E290E020E22327FC01B7
:1004080020831A82198289819A8101969A83898325
:100418000000F9CFCF93DF9300D000D000D0CDB744
:10042800DEB79E838D8320914B0A30914C0A8091D0
:100438004D0190914E01A901481B590BCA019A839D
:10044800898389819A81969587959C838B838091EE
:100458004B0A90914C0A982F8B81592F581B852F46
:10046800282F8D819E81FC0120A320914B0A309179
:100478004C0A8B819C81A901481B590BCA01892F01
:100488009927282F8D819E81FC0121A300000F90C0
:100498000F900F900F900F900F90DF91CF910895CC
:1004A800CF93DF93CDB7DEB728970FB6F894DEBFAA
:1004B8000FBECDBF9C838B837E836D8358874F830C
:1004C8008D819E81892F992789838D818A832B81AC
:1004D8003C8145E2429FC001439F900D11242F812A
:1004E8003885820F931F2981FC0124A32B813C812D
:1004F80045E2429FC001439F900D11242F8138850A
:10050800820F931F2A81FC0123A3000028960FB6AF
:10051800F894DEBF0FBECDBFDF91CF910895CF9382
:10052800DF93CDB7DEB780E890E0FC01108281E868
:1005380090E0FC01208181E890E02860FC012083A4
:1005480088E890E023EC39E0FC01318320838FE6D2
:1005580090E0FC0120818FE690E02260FC0120837E
:1005680078940000DF91CF910895CF93DF93CDB7B2
:10057800DEB781E890E0FC01208181E890E0287FE7
:10058800FC01208381E890E0FC01208181E890E073
:0E0598002460FC0120830000DF91CF910895C4
:1005A60011E0A0E0B1E0ECECF5E002C005900D92A0
:1005B600A230B107D9F721E0A2E0B1E001C01D9257
:0605C600AC34B207E1F7BE
:0205CC0001002C
:040000030000006891
:00000001FF
